:03000000020800F3
:0C080000787FE4F6D8FD758109020847F6
:06093B000109010108FFA3
:10092500EF1FAA0670011E4A600BE4FDEDC394712A
:0509350050EE0D80F7FB
:01093A00229A
:10090D00D2AFD2A8D288D2BAD2AAD28A7580017FAC
:08091D00C87E0012092580F7D5
:0300030002088C64
:10088C00C0E0C0F0C083C082C0D075D000C000C032
:10089C0001C002C003C004C005C006C00705807FAC
:1008AC00011208E8E580C3940540167580007FF4BA
:1008BC007E011209257580FF7FF47E0112092580C7
:1008CC00E3D007D006D005D004D003D002D001D09D
:0C08DC0000D0D0D082D083D0F0D0E03229
:030013000209429D
:040942007580013289
:0208E800AC075B
:1008EA00AF041CEF601CE4F583F582C3E5829490A3
:1008FA00E583940150EAB2A67F017E00120925A37E
:02090A0080E982
:01090C0022C8
:10080C0002090DE493A3F8E493A34003F68001F2EC
:10081C0008DFF48029E493A3F85407240CC8C333ED
:10082C00C4540F4420C8834004F456800146F6DFBC
:10083C00E4800B010204081020408090093BE47E08
:10084C00019360BCA3FF543F30E509541FFEE493B1
:10085C00A360010ECF54C025E060A840B8E493A378
:10086C00FAE493A3F8E493A3C8C582C8CAC583CAA3
:10087C00F0A3C8C582C8CAC583CADFE9DEE780BE5B
:0109410000B5
:00000001FF
